{
  "_format": "hh-sol-artifact-1",
  "contractName": "TokenBasket",
  "sourceName": "contracts/TokenBasket.sol",
  "abi": [
    {
      "inputs": [
        {
          "internalType": "contract ISwapRouter",
          "name": "_swapRouter",
          "type": "address"
        }
      ],
      "stateMutability": "nonpayable",
      "type": "constructor"
    },
    {
      "anonymous": false,
      "inputs": [
        {
          "indexed": true,
          "internalType": "address",
          "name": "previousOwner",
          "type": "address"
        },
        {
          "indexed": true,
          "internalType": "address",
          "name": "newOwner",
          "type": "address"
        }
      ],
      "name": "OwnershipTransferred",
      "type": "event"
    },
    {
      "inputs": [],
      "name": "owner",
      "outputs": [
        {
          "internalType": "address",
          "name": "",
          "type": "address"
        }
      ],
      "stateMutability": "view",
      "type": "function"
    },
    {
      "inputs": [],
      "name": "renounceOwnership",
      "outputs": [],
      "stateMutability": "nonpayable",
      "type": "function"
    },
    {
      "inputs": [
        {
          "internalType": "uint24",
          "name": "poolFee",
          "type": "uint24"
        },
        {
          "internalType": "address",
          "name": "tokenIn",
          "type": "address"
        },
        {
          "internalType": "address[]",
          "name": "tokensOut",
          "type": "address[]"
        },
        {
          "internalType": "uint256[]",
          "name": "amountsIn",
          "type": "uint256[]"
        },
        {
          "internalType": "uint256",
          "name": "totalAmount",
          "type": "uint256"
        }
      ],
      "name": "swapExactInputSingle",
      "outputs": [],
      "stateMutability": "nonpayable",
      "type": "function"
    },
    {
      "inputs": [],
      "name": "swapRouter",
      "outputs": [
        {
          "internalType": "contract ISwapRouter",
          "name": "",
          "type": "address"
        }
      ],
      "stateMutability": "view",
      "type": "function"
    },
    {
      "inputs": [
        {
          "internalType": "address",
          "name": "newOwner",
          "type": "address"
        }
      ],
      "name": "transferOwnership",
      "outputs": [],
      "stateMutability": "nonpayable",
      "type": "function"
    }
  ],
  "bytecode": "0x60a06040523480156200001157600080fd5b506040516200129e3803806200129e833981810160405281019062000037919062000178565b620000576200004b6200009560201b60201c565b6200009d60201b60201c565b8073ffffffffffffffffffffffffffffffffffffffff1660808173ffffffffffffffffffffffffffffffffffffffff1660601b815250505062000206565b600033905090565b60008060009054906101000a900473ffffffffffffffffffffffffffffffffffffffff169050816000806101000a81548173ffffffffffffffffffffffffffffffffffffffff021916908373ffffffffffffffffffffffffffffffffffffffff1602179055508173ffffffffffffffffffffffffffffffffffffffff168173ffffffffffffffffffffffffffffffffffffffff167f8be0079c531659141344cd1fd0a4f28419497f9722a3daafe3b4186f6b6457e060405160405180910390a35050565b6000815190506200017281620001ec565b92915050565b6000602082840312156200018b57600080fd5b60006200019b8482850162000161565b91505092915050565b6000620001b182620001cc565b9050919050565b6000620001c582620001a4565b9050919050565b600073ffffffffffffffffffffffffffffffffffffffff82169050919050565b620001f781620001b8565b81146200020357600080fd5b50565b60805160601c61106c620002326000396000818160ec0152818161025601526103d1015261106c6000f3fe608060405234801561001057600080fd5b50600436106100575760003560e01c80636f2d22d41461005c578063715018a6146100785780638da5cb5b14610082578063c31c9c07146100a0578063f2fde38b146100be575b600080fd5b610076600480360381019061007191906109b3565b6100da565b005b61008061031e565b005b61008a6103a6565b6040516100979190610d05565b60405180910390f35b6100a86103cf565b6040516100b59190610d80565b60405180910390f35b6100d860048036038101906100d39190610961565b6103f3565b005b6100e6863330846104eb565b610111867f000000000000000000000000000000000000000000000000000000000000000083610643565b60005b858590508110156103145760006040518061010001604052808973ffffffffffffffffffffffffffffffffffffffff168152602001888885818110610182577f4e487b7100000000000000000000000000000000000000000000000000000000600052603260045260246000fd5b90506020020160208101906101979190610961565b73ffffffffffffffffffffffffffffffffffffffff1681526020018a62ffffff1681526020013373ffffffffffffffffffffffffffffffffffffffff168152602001600f426101e69190610e5e565b8152602001868685818110610224577f4e487b7100000000000000000000000000000000000000000000000000000000600052603260045260246000fd5b90506020020135815260200160018152602001600073ffffffffffffffffffffffffffffffffffffffff1681525090507f000000000000000000000000000000000000000000000000000000000000000073ffffffffffffffffffffffffffffffffffffffff1663414bf389826040518263ffffffff1660e01b81526004016102ad9190610e1b565b602060405180830381600087803b1580156102c757600080fd5b505af11580156102db573d6000803e3d6000fd5b505050506040513d601f19601f820116820180604052508101906102ff9190610a63565b5050808061030c90610f62565b915050610114565b5050505050505050565b610326610798565b73ffffffffffffffffffffffffffffffffffffffff166103446103a6565b73ffffffffffffffffffffffffffffffffffffffff161461039a576040517f08c379a000000000000000000000000000000000000000000000000000000000815260040161039190610ddb565b60405180910390fd5b6103a460006107a0565b565b60008060009054906101000a900473ffffffffffffffffffffffffffffffffffffffff16905090565b7f000000000000000000000000000000000000000000000000000000000000000081565b6103fb610798565b73ffffffffffffffffffffffffffffffffffffffff166104196103a6565b73ffffffffffffffffffffffffffffffffffffffff161461046f576040517f08c379a000000000000000000000000000000000000000000000000000000000815260040161046690610ddb565b60405180910390fd5b600073ffffffffffffffffffffffffffffffffffffffff168173ffffffffffffffffffffffffffffffffffffffff1614156104df576040517f08c379a00000000000000000000000000000000000000000000000000000000081526004016104d690610dbb565b60405180910390fd5b6104e8816107a0565b50565b6000808573ffffffffffffffffffffffffffffffffffffffff166323b872dd60e01b86868660405160240161052293929190610d20565b604051602081830303815290604052907bffffffffffffffffffffffffffffffffffffffffffffffffffffffff19166020820180517bffffffffffffffffffffffffffffffffffffffffffffffffffffffff838183161783525050505060405161058c9190610cee565b6000604051808303816000865af19150503d80600081146105c9576040519150601f19603f3d011682016040523d82523d6000602084013e6105ce565b606091505b50915091508180156105fc57506000815114806105fb5750808060200190518101906105fa919061098a565b5b5b61063b576040517f08c379a000000000000000000000000000000000000000000000000000000000815260040161063290610dfb565b60405180910390fd5b505050505050565b6000808473ffffffffffffffffffffffffffffffffffffffff1663095ea7b360e01b8585604051602401610678929190610d57565b604051602081830303815290604052907bffffffffffffffffffffffffffffffffffffffffffffffffffffffff19166020820180517bffffffffffffffffffffffffffffffffffffffffffffffffffffffff83818316178352505050506040516106e29190610cee565b6000604051808303816000865af19150503d806000811461071f576040519150601f19603f3d011682016040523d82523d6000602084013e610724565b606091505b50915091508180156107525750600081511480610751575080806020019051810190610750919061098a565b5b5b610791576040517f08c379a000000000000000000000000000000000000000000000000000000000815260040161078890610d9b565b60405180910390fd5b5050505050565b600033905090565b60008060009054906101000a900473ffffffffffffffffffffffffffffffffffffffff169050816000806101000a81548173ffffffffffffffffffffffffffffffffffffffff021916908373ffffffffffffffffffffffffffffffffffffffff1602179055508173ffffffffffffffffffffffffffffffffffffffff168173ffffffffffffffffffffffffffffffffffffffff167f8be0079c531659141344cd1fd0a4f28419497f9722a3daafe3b4186f6b6457e060405160405180910390a35050565b60008135905061087381610fda565b92915050565b60008083601f84011261088b57600080fd5b8235905067ffffffffffffffff8111156108a457600080fd5b6020830191508360208202830111156108bc57600080fd5b9250929050565b60008083601f8401126108d557600080fd5b8235905067ffffffffffffffff8111156108ee57600080fd5b60208301915083602082028301111561090657600080fd5b9250929050565b60008151905061091c81610ff1565b92915050565b60008135905061093181611008565b92915050565b6000813590506109468161101f565b92915050565b60008151905061095b8161101f565b92915050565b60006020828403121561097357600080fd5b600061098184828501610864565b91505092915050565b60006020828403121561099c57600080fd5b60006109aa8482850161090d565b91505092915050565b600080600080600080600060a0888a0312156109ce57600080fd5b60006109dc8a828b01610922565b97505060206109ed8a828b01610864565b965050604088013567ffffffffffffffff811115610a0a57600080fd5b610a168a828b01610879565b9550955050606088013567ffffffffffffffff811115610a3557600080fd5b610a418a828b016108c3565b93509350506080610a548a828b01610937565b91505092959891949750929550565b600060208284031215610a7557600080fd5b6000610a838482850161094c565b91505092915050565b610a9581610eb4565b82525050565b610aa481610eb4565b82525050565b6000610ab582610e37565b610abf8185610e42565b9350610acf818560208601610f2f565b80840191505092915050565b610ae481610f0b565b82525050565b6000610af7600283610e4d565b91507f53410000000000000000000000000000000000000000000000000000000000006000830152602082019050919050565b6000610b37602683610e4d565b91507f4f776e61626c653a206e6577206f776e657220697320746865207a65726f206160008301527f64647265737300000000000000000000000000000000000000000000000000006020830152604082019050919050565b6000610b9d602083610e4d565b91507f4f776e61626c653a2063616c6c6572206973206e6f7420746865206f776e65726000830152602082019050919050565b6000610bdd600383610e4d565b91507f53544600000000000000000000000000000000000000000000000000000000006000830152602082019050919050565b61010082016000820151610c276000850182610a8c565b506020820151610c3a6020850182610a8c565b506040820151610c4d6040850182610cc1565b506060820151610c606060850182610a8c565b506080820151610c736080850182610cd0565b5060a0820151610c8660a0850182610cd0565b5060c0820151610c9960c0850182610cd0565b5060e0820151610cac60e0850182610cb2565b50505050565b610cbb81610ed2565b82525050565b610cca81610ef2565b82525050565b610cd981610f01565b82525050565b610ce881610f01565b82525050565b6000610cfa8284610aaa565b915081905092915050565b6000602082019050610d1a6000830184610a9b565b92915050565b6000606082019050610d356000830186610a9b565b610d426020830185610a9b565b610d4f6040830184610cdf565b949350505050565b6000604082019050610d6c6000830185610a9b565b610d796020830184610cdf565b9392505050565b6000602082019050610d956000830184610adb565b92915050565b60006020820190508181036000830152610db481610aea565b9050919050565b60006020820190508181036000830152610dd481610b2a565b9050919050565b60006020820190508181036000830152610df481610b90565b9050919050565b60006020820190508181036000830152610e1481610bd0565b9050919050565b600061010082019050610e316000830184610c10565b92915050565b600081519050919050565b600081905092915050565b600082825260208201905092915050565b6000610e6982610f01565b9150610e7483610f01565b9250827fffffffffffffffffffffffffffffffffffffffffffffffffffffffffffffffff03821115610ea957610ea8610fab565b5b828201905092915050565b6000610ebf82610ed2565b9050919050565b60008115159050919050565b600073ffffffffffffffffffffffffffffffffffffffff82169050919050565b600062ffffff82169050919050565b6000819050919050565b6000610f1682610f1d565b9050919050565b6000610f2882610ed2565b9050919050565b60005b83811015610f4d578082015181840152602081019050610f32565b83811115610f5c576000848401525b50505050565b6000610f6d82610f01565b91507fffffffffffffffffffffffffffffffffffffffffffffffffffffffffffffffff821415610fa057610f9f610fab565b5b600182019050919050565b7f4e487b7100000000000000000000000000000000000000000000000000000000600052601160045260246000fd5b610fe381610eb4565b8114610fee57600080fd5b50565b610ffa81610ec6565b811461100557600080fd5b50565b61101181610ef2565b811461101c57600080fd5b50565b61102881610f01565b811461103357600080fd5b5056fea2646970667358221220595c752d26a7a1e3695c920d94e91fb8373dc5fff3ce2ccf0fe50930257551ce64736f6c63430008000033",
  "linkReferences": {},
  "deployedLinkReferences": {}
}