{
  "_format": "hh-sol-artifact-1",
  "contractName": "TokenBasket",
  "sourceName": "contracts/TokenBasket.sol",
  "abi": [
    {
      "inputs": [
        {
          "internalType": "contract ISwapRouter",
          "name": "_swapRouter",
          "type": "address"
        },
        {
          "internalType": "address",
          "name": "_BAT",
          "type": "address"
        },
        {
          "internalType": "address",
          "name": "_DAI",
          "type": "address"
        },
        {
          "internalType": "address",
          "name": "_UNI",
          "type": "address"
        },
        {
          "internalType": "address",
          "name": "_WETH",
          "type": "address"
        }
      ],
      "stateMutability": "nonpayable",
      "type": "constructor"
    },
    {
      "anonymous": false,
      "inputs": [
        {
          "indexed": true,
          "internalType": "address",
          "name": "owner",
          "type": "address"
        },
        {
          "indexed": true,
          "internalType": "address",
          "name": "spender",
          "type": "address"
        },
        {
          "indexed": false,
          "internalType": "uint256",
          "name": "value",
          "type": "uint256"
        }
      ],
      "name": "Approval",
      "type": "event"
    },
    {
      "anonymous": false,
      "inputs": [
        {
          "indexed": true,
          "internalType": "address",
          "name": "from",
          "type": "address"
        },
        {
          "indexed": true,
          "internalType": "address",
          "name": "to",
          "type": "address"
        },
        {
          "indexed": false,
          "internalType": "uint256",
          "name": "value",
          "type": "uint256"
        }
      ],
      "name": "Transfer",
      "type": "event"
    },
    {
      "inputs": [],
      "name": "BAT",
      "outputs": [
        {
          "internalType": "address",
          "name": "",
          "type": "address"
        }
      ],
      "stateMutability": "view",
      "type": "function"
    },
    {
      "inputs": [],
      "name": "DAI",
      "outputs": [
        {
          "internalType": "address",
          "name": "",
          "type": "address"
        }
      ],
      "stateMutability": "view",
      "type": "function"
    },
    {
      "inputs": [],
      "name": "UNI",
      "outputs": [
        {
          "internalType": "address",
          "name": "",
          "type": "address"
        }
      ],
      "stateMutability": "view",
      "type": "function"
    },
    {
      "inputs": [],
      "name": "WETH",
      "outputs": [
        {
          "internalType": "address",
          "name": "",
          "type": "address"
        }
      ],
      "stateMutability": "view",
      "type": "function"
    },
    {
      "inputs": [
        {
          "internalType": "address",
          "name": "owner",
          "type": "address"
        },
        {
          "internalType": "address",
          "name": "spender",
          "type": "address"
        }
      ],
      "name": "allowance",
      "outputs": [
        {
          "internalType": "uint256",
          "name": "",
          "type": "uint256"
        }
      ],
      "stateMutability": "view",
      "type": "function"
    },
    {
      "inputs": [
        {
          "internalType": "address",
          "name": "spender",
          "type": "address"
        },
        {
          "internalType": "uint256",
          "name": "amount",
          "type": "uint256"
        }
      ],
      "name": "approve",
      "outputs": [
        {
          "internalType": "bool",
          "name": "",
          "type": "bool"
        }
      ],
      "stateMutability": "nonpayable",
      "type": "function"
    },
    {
      "inputs": [
        {
          "internalType": "address",
          "name": "",
          "type": "address"
        }
      ],
      "name": "balanceBasket",
      "outputs": [
        {
          "internalType": "uint256",
          "name": "",
          "type": "uint256"
        }
      ],
      "stateMutability": "view",
      "type": "function"
    },
    {
      "inputs": [
        {
          "internalType": "address",
          "name": "account",
          "type": "address"
        }
      ],
      "name": "balanceOf",
      "outputs": [
        {
          "internalType": "uint256",
          "name": "",
          "type": "uint256"
        }
      ],
      "stateMutability": "view",
      "type": "function"
    },
    {
      "inputs": [
        {
          "internalType": "uint256",
          "name": "amount",
          "type": "uint256"
        }
      ],
      "name": "buy",
      "outputs": [],
      "stateMutability": "nonpayable",
      "type": "function"
    },
    {
      "inputs": [],
      "name": "decimals",
      "outputs": [
        {
          "internalType": "uint8",
          "name": "",
          "type": "uint8"
        }
      ],
      "stateMutability": "view",
      "type": "function"
    },
    {
      "inputs": [
        {
          "internalType": "address",
          "name": "spender",
          "type": "address"
        },
        {
          "internalType": "uint256",
          "name": "subtractedValue",
          "type": "uint256"
        }
      ],
      "name": "decreaseAllowance",
      "outputs": [
        {
          "internalType": "bool",
          "name": "",
          "type": "bool"
        }
      ],
      "stateMutability": "nonpayable",
      "type": "function"
    },
    {
      "inputs": [
        {
          "internalType": "address",
          "name": "spender",
          "type": "address"
        },
        {
          "internalType": "uint256",
          "name": "addedValue",
          "type": "uint256"
        }
      ],
      "name": "increaseAllowance",
      "outputs": [
        {
          "internalType": "bool",
          "name": "",
          "type": "bool"
        }
      ],
      "stateMutability": "nonpayable",
      "type": "function"
    },
    {
      "inputs": [],
      "name": "name",
      "outputs": [
        {
          "internalType": "string",
          "name": "",
          "type": "string"
        }
      ],
      "stateMutability": "view",
      "type": "function"
    },
    {
      "inputs": [
        {
          "internalType": "uint256",
          "name": "amount",
          "type": "uint256"
        }
      ],
      "name": "sell",
      "outputs": [],
      "stateMutability": "nonpayable",
      "type": "function"
    },
    {
      "inputs": [],
      "name": "swapRouter",
      "outputs": [
        {
          "internalType": "contract ISwapRouter",
          "name": "",
          "type": "address"
        }
      ],
      "stateMutability": "view",
      "type": "function"
    },
    {
      "inputs": [],
      "name": "symbol",
      "outputs": [
        {
          "internalType": "string",
          "name": "",
          "type": "string"
        }
      ],
      "stateMutability": "view",
      "type": "function"
    },
    {
      "inputs": [],
      "name": "totalSupply",
      "outputs": [
        {
          "internalType": "uint256",
          "name": "",
          "type": "uint256"
        }
      ],
      "stateMutability": "view",
      "type": "function"
    },
    {
      "inputs": [
        {
          "internalType": "address",
          "name": "to",
          "type": "address"
        },
        {
          "internalType": "uint256",
          "name": "amount",
          "type": "uint256"
        }
      ],
      "name": "transfer",
      "outputs": [
        {
          "internalType": "bool",
          "name": "",
          "type": "bool"
        }
      ],
      "stateMutability": "nonpayable",
      "type": "function"
    },
    {
      "inputs": [
        {
          "internalType": "address",
          "name": "from",
          "type": "address"
        },
        {
          "internalType": "address",
          "name": "to",
          "type": "address"
        },
        {
          "internalType": "uint256",
          "name": "amount",
          "type": "uint256"
        }
      ],
      "name": "transferFrom",
      "outputs": [
        {
          "internalType": "bool",
          "name": "",
          "type": "bool"
        }
      ],
      "stateMutability": "nonpayable",
      "type": "function"
    }
  ],
  "bytecode": "0x6101206040523480156200001257600080fd5b50604051620030b5380380620030b58339818101604052810190620000389190620002d5565b6040518060400160405280600881526020017f4261736b746565720000000000000000000000000000000000000000000000008152506040518060400160405280600581526020017f42534b54520000000000000000000000000000000000000000000000000000008152508160039080519060200190620000bc929190620001f7565b508060049080519060200190620000d5929190620001f7565b5050508473ffffffffffffffffffffffffffffffffffffffff166101008173ffffffffffffffffffffffffffffffffffffffff1660601b815250508373ffffffffffffffffffffffffffffffffffffffff1660808173ffffffffffffffffffffffffffffffffffffffff1660601b815250508273ffffffffffffffffffffffffffffffffffffffff1660a08173ffffffffffffffffffffffffffffffffffffffff1660601b815250508173ffffffffffffffffffffffffffffffffffffffff1660c08173ffffffffffffffffffffffffffffffffffffffff1660601b815250508073ffffffffffffffffffffffffffffffffffffffff1660e08173ffffffffffffffffffffffffffffffffffffffff1660601b81525050505050505062000438565b82805462000205906200039f565b90600052602060002090601f01602090048101928262000229576000855562000275565b82601f106200024457805160ff191683800117855562000275565b8280016001018555821562000275579182015b828111156200027457825182559160200191906001019062000257565b5b50905062000284919062000288565b5090565b5b80821115620002a357600081600090555060010162000289565b5090565b600081519050620002b88162000404565b92915050565b600081519050620002cf816200041e565b92915050565b600080600080600060a08688031215620002ee57600080fd5b6000620002fe88828901620002be565b95505060206200031188828901620002a7565b94505060406200032488828901620002a7565b93505060606200033788828901620002a7565b92505060806200034a88828901620002a7565b9150509295509295909350565b600062000364826200037f565b9050919050565b6000620003788262000357565b9050919050565b600073ffffffffffffffffffffffffffffffffffffffff82169050919050565b60006002820490506001821680620003b857607f821691505b60208210811415620003cf57620003ce620003d5565b5b50919050565b7f4e487b7100000000000000000000000000000000000000000000000000000000600052602260045260246000fd5b6200040f8162000357565b81146200041b57600080fd5b50565b62000429816200036b565b81146200043557600080fd5b50565b60805160601c60a05160601c60c05160601c60e05160601c6101005160601c612bd5620004e0600039600081816107140152818161092801528181610a4301528181610f40015261104f0152600081816106f00152818161077d0152610df101526000818161051c015281816108510152610d9d0152600081816107ff01528181610c2e0152610d4b015260008181610558015281816107ad0152610cf90152612bd56000f3fe608060405234801561001057600080fd5b50600436106101215760003560e01c806370a08231116100ad578063c31c9c0711610071578063c31c9c0714610348578063d96a094a14610366578063dd62ed3e14610382578063e0bab4c4146103b2578063e4849b32146103d057610121565b806370a082311461027c57806395d89b41146102ac578063a457c2d7146102ca578063a9059cbb146102fa578063ad5c46481461032a57610121565b8063313ce567116100f4578063313ce567146101c257806339509351146101e0578063541bcb7614610210578063581be5521461022e5780635b7ab8911461025e57610121565b806306fdde0314610126578063095ea7b31461014457806318160ddd1461017457806323b872dd14610192575b600080fd5b61012e6103ec565b60405161013b91906125cb565b60405180910390f35b61015e60048036038101906101599190611d89565b61047e565b60405161016b9190612595565b60405180910390f35b61017c6104a1565b6040516101899190612809565b60405180910390f35b6101ac60048036038101906101a79190611d3a565b6104ab565b6040516101b99190612595565b60405180910390f35b6101ca6104da565b6040516101d79190612824565b60405180910390f35b6101fa60048036038101906101f59190611d89565b6104e3565b6040516102079190612595565b60405180910390f35b61021861051a565b604051610225919061251a565b60405180910390f35b61024860048036038101906102439190611cd5565b61053e565b6040516102559190612809565b60405180910390f35b610266610556565b604051610273919061251a565b60405180910390f35b61029660048036038101906102919190611cd5565b61057a565b6040516102a39190612809565b60405180910390f35b6102b46105c2565b6040516102c191906125cb565b60405180910390f35b6102e460048036038101906102df9190611d89565b610654565b6040516102f19190612595565b60405180910390f35b610314600480360381019061030f9190611d89565b6106cb565b6040516103219190612595565b60405180910390f35b6103326106ee565b60405161033f919061251a565b60405180910390f35b610350610712565b60405161035d91906125b0565b60405180910390f35b610380600480360381019061037b9190611dee565b610736565b005b61039c60048036038101906103979190611cfe565b610ba5565b6040516103a99190612809565b60405180910390f35b6103ba610c2c565b6040516103c7919061251a565b60405180910390f35b6103ea60048036038101906103e59190611dee565b610c50565b005b6060600380546103fb90612a41565b80601f016020809104026020016040519081016040528092919081815260200182805461042790612a41565b80156104745780601f1061044957610100808354040283529160200191610474565b820191906000526020600020905b81548152906001019060200180831161045757829003601f168201915b5050505050905090565b6000806104896111b3565b90506104968185856111bb565b600191505092915050565b6000600254905090565b6000806104b66111b3565b90506104c3858285611386565b6104ce858585611412565b60019150509392505050565b60006012905090565b6000806104ee6111b3565b905061050f8185856105008589610ba5565b61050a9190612871565b6111bb565b600191505092915050565b7f000000000000000000000000000000000000000000000000000000000000000081565b60056020528060005260406000206000915090505481565b7f000000000000000000000000000000000000000000000000000000000000000081565b60008060008373ffffffffffffffffffffffffffffffffffffffff1673ffffffffffffffffffffffffffffffffffffffff168152602001908152602001600020549050919050565b6060600480546105d190612a41565b80601f01602080910402602001604051908101604052809291908181526020018280546105fd90612a41565b801561064a5780601f1061061f5761010080835404028352916020019161064a565b820191906000526020600020905b81548152906001019060200180831161062d57829003601f168201915b5050505050905090565b60008061065f6111b3565b9050600061066d8286610ba5565b9050838110156106b2576040517f08c379a00000000000000000000000000000000000000000000000000000000081526004016106a99061278d565b60405180910390fd5b6106bf82868684036111bb565b60019250505092915050565b6000806106d66111b3565b90506106e3818585611412565b600191505092915050565b7f000000000000000000000000000000000000000000000000000000000000000081565b7f000000000000000000000000000000000000000000000000000000000000000081565b60008111610779576040517f08c379a0000000000000000000000000000000000000000000000000000000008152600401610770906126ad565b60405180910390fd5b60007f00000000000000000000000000000000000000000000000000000000000000009050600060405180606001604052807f000000000000000000000000000000000000000000000000000000000000000073ffffffffffffffffffffffffffffffffffffffff1673ffffffffffffffffffffffffffffffffffffffff1681526020017f000000000000000000000000000000000000000000000000000000000000000073ffffffffffffffffffffffffffffffffffffffff1673ffffffffffffffffffffffffffffffffffffffff1681526020017f000000000000000000000000000000000000000000000000000000000000000073ffffffffffffffffffffffffffffffffffffffff1673ffffffffffffffffffffffffffffffffffffffff16815250905060006064846108b091906128c7565b9050600081856108c09190612871565b905060006003826108d191906128c7565b905060008111610916576040517f08c379a000000000000000000000000000000000000000000000000000000000815260040161090d906126ad565b60405180910390fd5b61092285333085611693565b61094d857f0000000000000000000000000000000000000000000000000000000000000000846117eb565b60005b6003811015610b925760006040518061010001604052808873ffffffffffffffffffffffffffffffffffffffff1681526020018784600381106109bc577f4e487b7100000000000000000000000000000000000000000000000000000000600052603260045260246000fd5b602002015173ffffffffffffffffffffffffffffffffffffffff168152602001610bb862ffffff1681526020013073ffffffffffffffffffffffffffffffffffffffff168152602001600f42610a129190612871565b815260200184815260200160018152602001600073ffffffffffffffffffffffffffffffffffffffff1681525090507f000000000000000000000000000000000000000000000000000000000000000073ffffffffffffffffffffffffffffffffffffffff1663414bf389826040518263ffffffff1660e01b8152600401610a9a91906127ed565b602060405180830381600087803b158015610ab457600080fd5b505af1158015610ac8573d6000803e3d6000fd5b505050506040513d601f19601f82011682018060405250810190610aec9190611e17565b60056000888560038110610b29577f4e487b7100000000000000000000000000000000000000000000000000000000600052603260045260246000fd5b602002015173ffffffffffffffffffffffffffffffffffffffff1673ffffffffffffffffffffffffffffffffffffffff1681526020019081526020016000206000828254610b779190612871565b92505081905550508080610b8a90612a73565b915050610950565b50610b9d3387611940565b505050505050565b6000600160008473ffffffffffffffffffffffffffffffffffffffff1673ffffffffffffffffffffffffffffffffffffffff16815260200190815260200160002060008373ffffffffffffffffffffffffffffffffffffffff1673ffffffffffffffffffffffffffffffffffffffff16815260200190815260200160002054905092915050565b7f000000000000000000000000000000000000000000000000000000000000000081565b60008111610c93576040517f08c379a0000000000000000000000000000000000000000000000000000000008152600401610c8a906127ad565b60405180910390fd5b80610c9d3361057a565b1015610cde576040517f08c379a0000000000000000000000000000000000000000000000000000000008152600401610cd59061274d565b60405180910390fd5b6000610ce86104a1565b9050600060405180606001604052807f000000000000000000000000000000000000000000000000000000000000000073ffffffffffffffffffffffffffffffffffffffff1673ffffffffffffffffffffffffffffffffffffffff1681526020017f000000000000000000000000000000000000000000000000000000000000000073ffffffffffffffffffffffffffffffffffffffff1673ffffffffffffffffffffffffffffffffffffffff1681526020017f000000000000000000000000000000000000000000000000000000000000000073ffffffffffffffffffffffffffffffffffffffff1673ffffffffffffffffffffffffffffffffffffffff16815250905060007f0000000000000000000000000000000000000000000000000000000000000000905060005b60038110156111a257600060056000858460038110610e5d577f4e487b7100000000000000000000000000000000000000000000000000000000600052603260045260246000fd5b602002015173ffffffffffffffffffffffffffffffffffffffff1673ffffffffffffffffffffffffffffffffffffffff1681526020019081526020016000205490506000818688610eae91906128c7565b610eb891906128f8565b905081811115610efd576040517f08c379a0000000000000000000000000000000000000000000000000000000008152600401610ef49061276d565b60405180910390fd5b610f65858460038110610f39577f4e487b7100000000000000000000000000000000000000000000000000000000600052603260045260246000fd5b60200201517f0000000000000000000000000000000000000000000000000000000000000000836117eb565b6000604051806101000160405280878660038110610fac577f4e487b7100000000000000000000000000000000000000000000000000000000600052603260045260246000fd5b602002015173ffffffffffffffffffffffffffffffffffffffff1681526020018673ffffffffffffffffffffffffffffffffffffffff168152602001610bb862ffffff1681526020013373ffffffffffffffffffffffffffffffffffffffff168152602001600f4261101e9190612871565b815260200183815260200160018152602001600073ffffffffffffffffffffffffffffffffffffffff1681525090507f000000000000000000000000000000000000000000000000000000000000000073ffffffffffffffffffffffffffffffffffffffff1663414bf389826040518263ffffffff1660e01b81526004016110a691906127ed565b602060405180830381600087803b1580156110c057600080fd5b505af11580156110d4573d6000803e3d6000fd5b505050506040513d601f19601f820116820180604052508101906110f89190611e17565b508160056000888760038110611137577f4e487b7100000000000000000000000000000000000000000000000000000000600052603260045260246000fd5b602002015173ffffffffffffffffffffffffffffffffffffffff1673ffffffffffffffffffffffffffffffffffffffff16815260200190815260200160002060008282546111859190612952565b92505081905550505050808061119a90612a73565b915050610e15565b506111ad3385611aa0565b50505050565b600033905090565b600073ffffffffffffffffffffffffffffffffffffffff168373ffffffffffffffffffffffffffffffffffffffff16141561122b576040517f08c379a00000000000000000000000000000000000000000000000000000000081526004016112229061272d565b60405180910390fd5b600073ffffffffffffffffffffffffffffffffffffffff168273ffffffffffffffffffffffffffffffffffffffff16141561129b576040517f08c379a00000000000000000000000000000000000000000000000000000000081526004016112929061264d565b60405180910390fd5b80600160008573ffffffffffffffffffffffffffffffffffffffff1673ffffffffffffffffffffffffffffffffffffffff16815260200190815260200160002060008473ffffffffffffffffffffffffffffffffffffffff1673ffffffffffffffffffffffffffffffffffffffff168152602001908152602001600020819055508173ffffffffffffffffffffffffffffffffffffffff168373ffffffffffffffffffffffffffffffffffffffff167f8c5be1e5ebec7d5bd14f71427d1e84f3dd0314c0f7b2291e5b200ac8c7c3b925836040516113799190612809565b60405180910390a3505050565b60006113928484610ba5565b90507fffffffffffffffffffffffffffffffffffffffffffffffffffffffffffffffff811461140c57818110156113fe576040517f08c379a00000000000000000000000000000000000000000000000000000000081526004016113f59061266d565b60405180910390fd5b61140b84848484036111bb565b5b50505050565b600073ffffffffffffffffffffffffffffffffffffffff168373ffffffffffffffffffffffffffffffffffffffff161415611482576040517f08c379a00000000000000000000000000000000000000000000000000000000081526004016114799061270d565b60405180910390fd5b600073ffffffffffffffffffffffffffffffffffffffff168273ffffffffffffffffffffffffffffffffffffffff1614156114f2576040517f08c379a00000000000000000000000000000000000000000000000000000000081526004016114e9906125ed565b60405180910390fd5b6114fd838383611c77565b60008060008573ffffffffffffffffffffffffffffffffffffffff1673ffffffffffffffffffffffffffffffffffffffff16815260200190815260200160002054905081811015611583576040517f08c379a000000000000000000000000000000000000000000000000000000000815260040161157a9061268d565b60405180910390fd5b8181036000808673ffffffffffffffffffffffffffffffffffffffff1673ffffffffffffffffffffffffffffffffffffffff16815260200190815260200160002081905550816000808573ffffffffffffffffffffffffffffffffffffffff1673ffffffffffffffffffffffffffffffffffffffff16815260200190815260200160002060008282546116169190612871565b925050819055508273ffffffffffffffffffffffffffffffffffffffff168473ffffffffffffffffffffffffffffffffffffffff167fddf252ad1be2c89b69c2b068fc378daa952ba7f163c4a11628f55a4df523b3ef8460405161167a9190612809565b60405180910390a361168d848484611c7c565b50505050565b6000808573ffffffffffffffffffffffffffffffffffffffff166323b872dd60e01b8686866040516024016116ca93929190612535565b604051602081830303815290604052907bffffffffffffffffffffffffffffffffffffffffffffffffffffffff19166020820180517bffffffffffffffffffffffffffffffffffffffffffffffffffffffff83818316178352505050506040516117349190612503565b6000604051808303816000865af19150503d8060008114611771576040519150601f19603f3d011682016040523d82523d6000602084013e611776565b606091505b50915091508180156117a457506000815114806117a35750808060200190518101906117a29190611dc5565b5b5b6117e3576040517f08c379a00000000000000000000000000000000000000000000000000000000081526004016117da906126cd565b60405180910390fd5b505050505050565b6000808473ffffffffffffffffffffffffffffffffffffffff1663095ea7b360e01b858560405160240161182092919061256c565b604051602081830303815290604052907bffffffffffffffffffffffffffffffffffffffffffffffffffffffff19166020820180517bffffffffffffffffffffffffffffffffffffffffffffffffffffffff838183161783525050505060405161188a9190612503565b6000604051808303816000865af19150503d80600081146118c7576040519150601f19603f3d011682016040523d82523d6000602084013e6118cc565b606091505b50915091508180156118fa57506000815114806118f95750808060200190518101906118f89190611dc5565b5b5b611939576040517f08c379a00000000000000000000000000000000000000000000000000000000081526004016119309061260d565b60405180910390fd5b5050505050565b600073ffffffffffffffffffffffffffffffffffffffff168273ffffffffffffffffffffffffffffffffffffffff1614156119b0576040517f08c379a00000000000000000000000000000000000000000000000000000000081526004016119a7906127cd565b60405180910390fd5b6119bc60008383611c77565b80600260008282546119ce9190612871565b92505081905550806000808473ffffffffffffffffffffffffffffffffffffffff1673ffffffffffffffffffffffffffffffffffffffff1681526020019081526020016000206000828254611a239190612871565b925050819055508173ffffffffffffffffffffffffffffffffffffffff16600073ffffffffffffffffffffffffffffffffffffffff167fddf252ad1be2c89b69c2b068fc378daa952ba7f163c4a11628f55a4df523b3ef83604051611a889190612809565b60405180910390a3611a9c60008383611c7c565b5050565b600073ffffffffffffffffffffffffffffffffffffffff168273ffffffffffffffffffffffffffffffffffffffff161415611b10576040517f08c379a0000000000000000000000000000000000000000000000000000000008152600401611b07906126ed565b60405180910390fd5b611b1c82600083611c77565b60008060008473ffffffffffffffffffffffffffffffffffffffff1673ffffffffffffffffffffffffffffffffffffffff16815260200190815260200160002054905081811015611ba2576040517f08c379a0000000000000000000000000000000000000000000000000000000008152600401611b999061262d565b60405180910390fd5b8181036000808573ffffffffffffffffffffffffffffffffffffffff1673ffffffffffffffffffffffffffffffffffffffff168152602001908152602001600020819055508160026000828254611bf99190612952565b92505081905550600073ffffffffffffffffffffffffffffffffffffffff168373ffffffffffffffffffffffffffffffffffffffff167fddf252ad1be2c89b69c2b068fc378daa952ba7f163c4a11628f55a4df523b3ef84604051611c5e9190612809565b60405180910390a3611c7283600084611c7c565b505050565b505050565b505050565b600081359050611c9081612b5a565b92915050565b600081519050611ca581612b71565b92915050565b600081359050611cba81612b88565b92915050565b600081519050611ccf81612b88565b92915050565b600060208284031215611ce757600080fd5b6000611cf584828501611c81565b91505092915050565b60008060408385031215611d1157600080fd5b6000611d1f85828601611c81565b9250506020611d3085828601611c81565b9150509250929050565b600080600060608486031215611d4f57600080fd5b6000611d5d86828701611c81565b9350506020611d6e86828701611c81565b9250506040611d7f86828701611cab565b9150509250925092565b60008060408385031215611d9c57600080fd5b6000611daa85828601611c81565b9250506020611dbb85828601611cab565b9150509250929050565b600060208284031215611dd757600080fd5b6000611de584828501611c96565b91505092915050565b600060208284031215611e0057600080fd5b6000611e0e84828501611cab565b91505092915050565b600060208284031215611e2957600080fd5b6000611e3784828501611cc0565b91505092915050565b611e4981612986565b82525050565b611e5881612986565b82525050565b611e6781612998565b82525050565b6000611e788261283f565b611e828185612855565b9350611e92818560208601612a0e565b80840191505092915050565b611ea7816129ea565b82525050565b6000611eb88261284a565b611ec28185612860565b9350611ed2818560208601612a0e565b611edb81612b49565b840191505092915050565b6000611ef3602383612860565b91507f45524332303a207472616e7366657220746f20746865207a65726f206164647260008301527f65737300000000000000000000000000000000000000000000000000000000006020830152604082019050919050565b6000611f59600283612860565b91507f53410000000000000000000000000000000000000000000000000000000000006000830152602082019050919050565b6000611f99602283612860565b91507f45524332303a206275726e20616d6f756e7420657863656564732062616c616e60008301527f63650000000000000000000000000000000000000000000000000000000000006020830152604082019050919050565b6000611fff602283612860565b91507f45524332303a20617070726f766520746f20746865207a65726f20616464726560008301527f73730000000000000000000000000000000000000000000000000000000000006020830152604082019050919050565b6000612065601d83612860565b91507f45524332303a20696e73756666696369656e7420616c6c6f77616e63650000006000830152602082019050919050565b60006120a5602683612860565b91507f45524332303a207472616e7366657220616d6f756e742065786365656473206260008301527f616c616e636500000000000000000000000000000000000000000000000000006020830152604082019050919050565b600061210b601283612860565b91507f4e6f7420656e6f7567682062616c616e636500000000000000000000000000006000830152602082019050919050565b600061214b600383612860565b91507f53544600000000000000000000000000000000000000000000000000000000006000830152602082019050919050565b600061218b602183612860565b91507f45524332303a206275726e2066726f6d20746865207a65726f2061646472657360008301527f73000000000000000000000000000000000000000000000000000000000000006020830152604082019050919050565b60006121f1602583612860565b91507f45524332303a207472616e736665722066726f6d20746865207a65726f20616460008301527f64726573730000000000000000000000000000000000000000000000000000006020830152604082019050919050565b6000612257602483612860565b91507f45524332303a20617070726f76652066726f6d20746865207a65726f2061646460008301527f72657373000000000000000000000000000000000000000000000000000000006020830152604082019050919050565b60006122bd601c83612860565b91507f4e6f7420656e6f7567682062616c616e636520617661696c61626c65000000006000830152602082019050919050565b60006122fd601b83612860565b91507f4572726f722063616c63756c6174696e6720616d6f756e7420696e00000000006000830152602082019050919050565b600061233d602583612860565b91507f45524332303a2064656372656173656420616c6c6f77616e63652062656c6f7760008301527f207a65726f0000000000000000000000000000000000000000000000000000006020830152604082019050919050565b60006123a3600f83612860565b91507f4e6f7468696e6720746f2073656c6c00000000000000000000000000000000006000830152602082019050919050565b60006123e3601f83612860565b91507f45524332303a206d696e7420746f20746865207a65726f2061646472657373006000830152602082019050919050565b6101008201600082015161242d6000850182611e40565b5060208201516124406020850182611e40565b50604082015161245360408501826124c7565b5060608201516124666060850182611e40565b50608082015161247960808501826124d6565b5060a082015161248c60a08501826124d6565b5060c082015161249f60c08501826124d6565b5060e08201516124b260e08501826124b8565b50505050565b6124c1816129a4565b82525050565b6124d0816129c4565b82525050565b6124df816129d3565b82525050565b6124ee816129d3565b82525050565b6124fd816129dd565b82525050565b600061250f8284611e6d565b915081905092915050565b600060208201905061252f6000830184611e4f565b92915050565b600060608201905061254a6000830186611e4f565b6125576020830185611e4f565b61256460408301846124e5565b949350505050565b60006040820190506125816000830185611e4f565b61258e60208301846124e5565b9392505050565b60006020820190506125aa6000830184611e5e565b92915050565b60006020820190506125c56000830184611e9e565b92915050565b600060208201905081810360008301526125e58184611ead565b905092915050565b6000602082019050818103600083015261260681611ee6565b9050919050565b6000602082019050818103600083015261262681611f4c565b9050919050565b6000602082019050818103600083015261264681611f8c565b9050919050565b6000602082019050818103600083015261266681611ff2565b9050919050565b6000602082019050818103600083015261268681612058565b9050919050565b600060208201905081810360008301526126a681612098565b9050919050565b600060208201905081810360008301526126c6816120fe565b9050919050565b600060208201905081810360008301526126e68161213e565b9050919050565b600060208201905081810360008301526127068161217e565b9050919050565b60006020820190508181036000830152612726816121e4565b9050919050565b600060208201905081810360008301526127468161224a565b9050919050565b60006020820190508181036000830152612766816122b0565b9050919050565b60006020820190508181036000830152612786816122f0565b9050919050565b600060208201905081810360008301526127a681612330565b9050919050565b600060208201905081810360008301526127c681612396565b9050919050565b600060208201905081810360008301526127e6816123d6565b9050919050565b6000610100820190506128036000830184612416565b92915050565b600060208201905061281e60008301846124e5565b92915050565b600060208201905061283960008301846124f4565b92915050565b600081519050919050565b600081519050919050565b600081905092915050565b600082825260208201905092915050565b600061287c826129d3565b9150612887836129d3565b9250827fffffffffffffffffffffffffffffffffffffffffffffffffffffffffffffffff038211156128bc576128bb612abc565b5b828201905092915050565b60006128d2826129d3565b91506128dd836129d3565b9250826128ed576128ec612aeb565b5b828204905092915050565b6000612903826129d3565b915061290e836129d3565b9250817fffffffffffffffffffffffffffffffffffffffffffffffffffffffffffffffff048311821515161561294757612946612abc565b5b828202905092915050565b600061295d826129d3565b9150612968836129d3565b92508282101561297b5761297a612abc565b5b828203905092915050565b6000612991826129a4565b9050919050565b60008115159050919050565b600073ffffffffffffffffffffffffffffffffffffffff82169050919050565b600062ffffff82169050919050565b6000819050919050565b600060ff82169050919050565b60006129f5826129fc565b9050919050565b6000612a07826129a4565b9050919050565b60005b83811015612a2c578082015181840152602081019050612a11565b83811115612a3b576000848401525b50505050565b60006002820490506001821680612a5957607f821691505b60208210811415612a6d57612a6c612b1a565b5b50919050565b6000612a7e826129d3565b91507fffffffffffffffffffffffffffffffffffffffffffffffffffffffffffffffff821415612ab157612ab0612abc565b5b600182019050919050565b7f4e487b7100000000000000000000000000000000000000000000000000000000600052601160045260246000fd5b7f4e487b7100000000000000000000000000000000000000000000000000000000600052601260045260246000fd5b7f4e487b7100000000000000000000000000000000000000000000000000000000600052602260045260246000fd5b6000601f19601f8301169050919050565b612b6381612986565b8114612b6e57600080fd5b50565b612b7a81612998565b8114612b8557600080fd5b50565b612b91816129d3565b8114612b9c57600080fd5b5056fea264697066735822122051cf4c51a1fef0a9b8938e827067776d5880ce696b159d6704fe64097d18c55c64736f6c63430008000033",
  "linkReferences": {},
  "deployedLinkReferences": {}
}