{
  "_format": "hh-sol-artifact-1",
  "contractName": "TokenBasket",
  "sourceName": "contracts/TokenBasket.sol",
  "abi": [
    {
      "inputs": [
        {
          "internalType": "contract ISwapRouter",
          "name": "_swapRouter",
          "type": "address"
        }
      ],
      "stateMutability": "nonpayable",
      "type": "constructor"
    },
    {
      "anonymous": false,
      "inputs": [
        {
          "indexed": true,
          "internalType": "address",
          "name": "previousOwner",
          "type": "address"
        },
        {
          "indexed": true,
          "internalType": "address",
          "name": "newOwner",
          "type": "address"
        }
      ],
      "name": "OwnershipTransferred",
      "type": "event"
    },
    {
      "inputs": [],
      "name": "owner",
      "outputs": [
        {
          "internalType": "address",
          "name": "",
          "type": "address"
        }
      ],
      "stateMutability": "view",
      "type": "function"
    },
    {
      "inputs": [],
      "name": "renounceOwnership",
      "outputs": [],
      "stateMutability": "nonpayable",
      "type": "function"
    },
    {
      "inputs": [
        {
          "internalType": "uint24",
          "name": "poolFee",
          "type": "uint24"
        },
        {
          "internalType": "uint256",
          "name": "amountIn",
          "type": "uint256"
        },
        {
          "internalType": "address",
          "name": "tokenIn",
          "type": "address"
        },
        {
          "internalType": "address",
          "name": "tokenOut",
          "type": "address"
        }
      ],
      "name": "swapExactInputSingle",
      "outputs": [
        {
          "internalType": "uint256",
          "name": "amountOut",
          "type": "uint256"
        }
      ],
      "stateMutability": "nonpayable",
      "type": "function"
    },
    {
      "inputs": [],
      "name": "swapRouter",
      "outputs": [
        {
          "internalType": "contract ISwapRouter",
          "name": "",
          "type": "address"
        }
      ],
      "stateMutability": "view",
      "type": "function"
    },
    {
      "inputs": [
        {
          "internalType": "address",
          "name": "newOwner",
          "type": "address"
        }
      ],
      "name": "transferOwnership",
      "outputs": [],
      "stateMutability": "nonpayable",
      "type": "function"
    }
  ],
  "bytecode": "0x60a06040523480156200001157600080fd5b506040516200106738038062001067833981810160405281019062000037919062000178565b620000576200004b6200009560201b60201c565b6200009d60201b60201c565b8073ffffffffffffffffffffffffffffffffffffffff1660808173ffffffffffffffffffffffffffffffffffffffff1660601b815250505062000206565b600033905090565b60008060009054906101000a900473ffffffffffffffffffffffffffffffffffffffff169050816000806101000a81548173ffffffffffffffffffffffffffffffffffffffff021916908373ffffffffffffffffffffffffffffffffffffffff1602179055508173ffffffffffffffffffffffffffffffffffffffff168173ffffffffffffffffffffffffffffffffffffffff167f8be0079c531659141344cd1fd0a4f28419497f9722a3daafe3b4186f6b6457e060405160405180910390a35050565b6000815190506200017281620001ec565b92915050565b6000602082840312156200018b57600080fd5b60006200019b8482850162000161565b91505092915050565b6000620001b182620001cc565b9050919050565b6000620001c582620001a4565b9050919050565b600073ffffffffffffffffffffffffffffffffffffffff82169050919050565b620001f781620001b8565b81146200020357600080fd5b50565b60805160601c610e3462000233600039600081816101a1015281816101d7015261029b0152610e346000f3fe608060405234801561001057600080fd5b50600436106100575760003560e01c8063715018a61461005c5780638da5cb5b14610066578063c31c9c0714610084578063eea51f3e146100a2578063f2fde38b146100d2575b600080fd5b6100646100ee565b005b61006e610176565b60405161007b9190610b80565b60405180910390f35b61008c61019f565b6040516100999190610bfb565b60405180910390f35b6100bc60048036038101906100b7919061087b565b6101c3565b6040516100c99190610cb2565b60405180910390f35b6100ec60048036038101906100e79190610829565b61034f565b005b6100f6610447565b73ffffffffffffffffffffffffffffffffffffffff16610114610176565b73ffffffffffffffffffffffffffffffffffffffff161461016a576040517f08c379a000000000000000000000000000000000000000000000000000000000815260040161016190610c56565b60405180910390fd5b610174600061044f565b565b60008060009054906101000a900473ffffffffffffffffffffffffffffffffffffffff16905090565b7f000000000000000000000000000000000000000000000000000000000000000081565b60006101d183333087610513565b6101fc837f00000000000000000000000000000000000000000000000000000000000000008661066b565b60006040518061010001604052808573ffffffffffffffffffffffffffffffffffffffff1681526020018473ffffffffffffffffffffffffffffffffffffffff1681526020018762ffffff1681526020013373ffffffffffffffffffffffffffffffffffffffff16815260200142815260200186815260200160008152602001600073ffffffffffffffffffffffffffffffffffffffff1681525090507f000000000000000000000000000000000000000000000000000000000000000073ffffffffffffffffffffffffffffffffffffffff1663414bf389826040518263ffffffff1660e01b81526004016102f29190610c96565b602060405180830381600087803b15801561030c57600080fd5b505af1158015610320573d6000803e3d6000fd5b505050506040513d601f19601f8201168201806040525081019061034491906108de565b915050949350505050565b610357610447565b73ffffffffffffffffffffffffffffffffffffffff16610375610176565b73ffffffffffffffffffffffffffffffffffffffff16146103cb576040517f08c379a00000000000000000000000000000000000000000000000000000000081526004016103c290610c56565b60405180910390fd5b600073ffffffffffffffffffffffffffffffffffffffff168173ffffffffffffffffffffffffffffffffffffffff16141561043b576040517f08c379a000000000000000000000000000000000000000000000000000000000815260040161043290610c36565b60405180910390fd5b6104448161044f565b50565b600033905090565b60008060009054906101000a900473ffffffffffffffffffffffffffffffffffffffff169050816000806101000a81548173ffffffffffffffffffffffffffffffffffffffff021916908373ffffffffffffffffffffffffffffffffffffffff1602179055508173ffffffffffffffffffffffffffffffffffffffff168173ffffffffffffffffffffffffffffffffffffffff167f8be0079c531659141344cd1fd0a4f28419497f9722a3daafe3b4186f6b6457e060405160405180910390a35050565b6000808573ffffffffffffffffffffffffffffffffffffffff166323b872dd60e01b86868660405160240161054a93929190610b9b565b604051602081830303815290604052907bffffffffffffffffffffffffffffffffffffffffffffffffffffffff19166020820180517bffffffffffffffffffffffffffffffffffffffffffffffffffffffff83818316178352505050506040516105b49190610b69565b6000604051808303816000865af19150503d80600081146105f1576040519150601f19603f3d011682016040523d82523d6000602084013e6105f6565b606091505b509150915081801561062457506000815114806106235750808060200190518101906106229190610852565b5b5b610663576040517f08c379a000000000000000000000000000000000000000000000000000000000815260040161065a90610c76565b60405180910390fd5b505050505050565b6000808473ffffffffffffffffffffffffffffffffffffffff1663095ea7b360e01b85856040516024016106a0929190610bd2565b604051602081830303815290604052907bffffffffffffffffffffffffffffffffffffffffffffffffffffffff19166020820180517bffffffffffffffffffffffffffffffffffffffffffffffffffffffff838183161783525050505060405161070a9190610b69565b6000604051808303816000865af19150503d8060008114610747576040519150601f19603f3d011682016040523d82523d6000602084013e61074c565b606091505b509150915081801561077a57506000815114806107795750808060200190518101906107789190610852565b5b5b6107b9576040517f08c379a00000000000000000000000000000000000000000000000000000000081526004016107b090610c16565b60405180910390fd5b5050505050565b6000813590506107cf81610da2565b92915050565b6000815190506107e481610db9565b92915050565b6000813590506107f981610dd0565b92915050565b60008135905061080e81610de7565b92915050565b60008151905061082381610de7565b92915050565b60006020828403121561083b57600080fd5b6000610849848285016107c0565b91505092915050565b60006020828403121561086457600080fd5b6000610872848285016107d5565b91505092915050565b6000806000806080858703121561089157600080fd5b600061089f878288016107ea565b94505060206108b0878288016107ff565b93505060406108c1878288016107c0565b92505060606108d2878288016107c0565b91505092959194509250565b6000602082840312156108f057600080fd5b60006108fe84828501610814565b91505092915050565b61091081610cf4565b82525050565b61091f81610cf4565b82525050565b600061093082610ccd565b61093a8185610cd8565b935061094a818560208601610d6f565b80840191505092915050565b61095f81610d4b565b82525050565b6000610972600283610ce3565b91507f53410000000000000000000000000000000000000000000000000000000000006000830152602082019050919050565b60006109b2602683610ce3565b91507f4f776e61626c653a206e6577206f776e657220697320746865207a65726f206160008301527f64647265737300000000000000000000000000000000000000000000000000006020830152604082019050919050565b6000610a18602083610ce3565b91507f4f776e61626c653a2063616c6c6572206973206e6f7420746865206f776e65726000830152602082019050919050565b6000610a58600383610ce3565b91507f53544600000000000000000000000000000000000000000000000000000000006000830152602082019050919050565b61010082016000820151610aa26000850182610907565b506020820151610ab56020850182610907565b506040820151610ac86040850182610b3c565b506060820151610adb6060850182610907565b506080820151610aee6080850182610b4b565b5060a0820151610b0160a0850182610b4b565b5060c0820151610b1460c0850182610b4b565b5060e0820151610b2760e0850182610b2d565b50505050565b610b3681610d12565b82525050565b610b4581610d32565b82525050565b610b5481610d41565b82525050565b610b6381610d41565b82525050565b6000610b758284610925565b915081905092915050565b6000602082019050610b956000830184610916565b92915050565b6000606082019050610bb06000830186610916565b610bbd6020830185610916565b610bca6040830184610b5a565b949350505050565b6000604082019050610be76000830185610916565b610bf46020830184610b5a565b9392505050565b6000602082019050610c106000830184610956565b92915050565b60006020820190508181036000830152610c2f81610965565b9050919050565b60006020820190508181036000830152610c4f816109a5565b9050919050565b60006020820190508181036000830152610c6f81610a0b565b9050919050565b60006020820190508181036000830152610c8f81610a4b565b9050919050565b600061010082019050610cac6000830184610a8b565b92915050565b6000602082019050610cc76000830184610b5a565b92915050565b600081519050919050565b600081905092915050565b600082825260208201905092915050565b6000610cff82610d12565b9050919050565b60008115159050919050565b600073ffffffffffffffffffffffffffffffffffffffff82169050919050565b600062ffffff82169050919050565b6000819050919050565b6000610d5682610d5d565b9050919050565b6000610d6882610d12565b9050919050565b60005b83811015610d8d578082015181840152602081019050610d72565b83811115610d9c576000848401525b50505050565b610dab81610cf4565b8114610db657600080fd5b50565b610dc281610d06565b8114610dcd57600080fd5b50565b610dd981610d32565b8114610de457600080fd5b50565b610df081610d41565b8114610dfb57600080fd5b5056fea2646970667358221220074008af6359b92919f17484943c57472da49efe1642e0e1e4b46762103e6aa164736f6c63430008000033",
  "linkReferences": {},
  "deployedLinkReferences": {}
}